{
  "contractName": "PolyLocker",
  "abi": [
    {
      "constant": true,
      "inputs": [],
      "name": "frozen",
      "outputs": [
        {
          "name": "",
          "type": "bool"
        }
      ],
      "payable": false,
      "stateMutability": "view",
      "type": "function"
    },
    {
      "constant": false,
      "inputs": [
        {
          "name": "_meshAddress",
          "type": "string"
        }
      ],
      "name": "lock",
      "outputs": [],
      "payable": false,
      "stateMutability": "nonpayable",
      "type": "function"
    },
    {
      "constant": false,
      "inputs": [
        {
          "name": "_meshAddress",
          "type": "string"
        },
        {
          "name": "_holder",
          "type": "address"
        },
        {
          "name": "_value",
          "type": "uint256"
        },
        {
          "name": "_data",
          "type": "bytes"
        }
      ],
      "name": "lockWithData",
      "outputs": [],
      "payable": false,
      "stateMutability": "nonpayable",
      "type": "function"
    },
    {
      "constant": true,
      "inputs": [],
      "name": "noOfeventsEmitted",
      "outputs": [
        {
          "name": "",
          "type": "uint256"
        }
      ],
      "payable": false,
      "stateMutability": "view",
      "type": "function"
    },
    {
      "constant": true,
      "inputs": [],
      "name": "polyToken",
      "outputs": [
        {
          "name": "",
          "type": "address"
        }
      ],
      "payable": false,
      "stateMutability": "view",
      "type": "function"
    },
    {
      "constant": false,
      "inputs": [],
      "name": "freezeLocking",
      "outputs": [],
      "payable": false,
      "stateMutability": "nonpayable",
      "type": "function"
    },
    {
      "constant": false,
      "inputs": [],
      "name": "unfreezeLocking",
      "outputs": [],
      "payable": false,
      "stateMutability": "nonpayable",
      "type": "function"
    },
    {
      "constant": true,
      "inputs": [],
      "name": "VALID_ADDRESS_LENGTH",
      "outputs": [
        {
          "name": "",
          "type": "uint256"
        }
      ],
      "payable": false,
      "stateMutability": "view",
      "type": "function"
    },
    {
      "constant": false,
      "inputs": [
        {
          "name": "_meshAddress",
          "type": "string"
        },
        {
          "name": "_lockedValue",
          "type": "uint256"
        }
      ],
      "name": "limitLock",
      "outputs": [],
      "payable": false,
      "stateMutability": "nonpayable",
      "type": "function"
    },
    {
      "constant": true,
      "inputs": [],
      "name": "TRUNCATE_SCALE",
      "outputs": [
        {
          "name": "",
          "type": "uint256"
        }
      ],
      "payable": false,
      "stateMutability": "view",
      "type": "function"
    },
    {
      "inputs": [],
      "payable": false,
      "stateMutability": "nonpayable",
      "type": "constructor"
    },
    {
      "anonymous": false,
      "inputs": [
        {
          "indexed": true,
          "name": "_id",
          "type": "uint256"
        },
        {
          "indexed": true,
          "name": "_holder",
          "type": "address"
        },
        {
          "indexed": false,
          "name": "_meshAddress",
          "type": "string"
        },
        {
          "indexed": false,
          "name": "_polymeshBalance",
          "type": "uint256"
        },
        {
          "indexed": false,
          "name": "_polyTokenBalance",
          "type": "uint256"
        }
      ],
      "name": "PolyLocked",
      "type": "event"
    },
    {
      "anonymous": false,
      "inputs": [],
      "name": "Frozen",
      "type": "event"
    },
    {
      "anonymous": false,
      "inputs": [],
      "name": "Unfrozen",
      "type": "event"
    }
  ],
  "bytecode": "0x608060405234801561001057600080fd5b50610ed6806100206000396000f3fe608060405234801561001057600080fd5b506004361061007d5760003560e01c80636477f91d1161005b5780636477f91d146101df5780636faa22a5146101e7578063d4a309cc1461020b578063dac9594f146102135761007d565b8063320a98fd146100825780633f3a5532146100f2578063592d5a491461010c575b600080fd5b6100f06004803603602081101561009857600080fd5b810190602081018135600160201b8111156100b257600080fd5b8201836020820111156100c457600080fd5b803590602001918460018302840111600160201b831117156100e557600080fd5b509092509050610281565b005b6100fa610341565b60408051918252519081900360200190f35b6100f06004803603608081101561012257600080fd5b810190602081018135600160201b81111561013c57600080fd5b82018360208201111561014e57600080fd5b803590602001918460018302840111600160201b8311171561016f57600080fd5b919390926001600160a01b03833516926020810135929190606081019060400135600160201b8111156101a157600080fd5b8201836020820111156101b357600080fd5b803590602001918460018302840111600160201b831117156101d457600080fd5b509092509050610348565b6100fa61096f565b6101ef610975565b604080516001600160a01b039092168252519081900360200190f35b6100fa610984565b6100f06004803603604081101561022957600080fd5b810190602081018135600160201b81111561024357600080fd5b82018360208201111561025557600080fd5b803590602001918460018302840111600160201b8311171561027657600080fd5b919350915035610989565b61033d82828080601f0160208091040260200160405190810160405280939291908181526020018383808284376000920191909152505060015460408051600160e01b6370a08231028152336004820181905291519194506001600160a01b0390921692506370a0823191602480820192602092909190829003018186803b15801561030c57600080fd5b505afa158015610320573d6000803e3d6000fd5b505050506040513d602081101561033657600080fd5b5051610a98565b5050565b620f424081565b600060606000806060868660a081101561036157600080fd5b6001600160a01b038235169190810190604081016020820135600160201b81111561038b57600080fd5b82018360208201111561039d57600080fd5b803590602001918460018302840111600160201b831117156103be57600080fd5b91908080601f0160208091040260200160405190810160405280939291908181526020018383808284376000920191909152509295843595602086013595919450925060608101915060400135600160201b81111561041c57600080fd5b82018360208201111561042e57600080fd5b803590602001918460018302840111600160201b8311171561044f57600080fd5b91908080601f016020809104026020016040519081016040528093929190818152602001838380828437600092019190915250999e50979c50959a50939850929650505050506001600160a01b038b16151591506104f990505760408051600160e51b62461bcd02815260206004820152600f60248201527f496e76616c696420616464726573730000000000000000000000000000000000604482015290519081900360640190fd5b6001600160a01b03851630146105595760408051600160e51b62461bcd02815260206004820152601660248201527f496e76616c696420746172676574206164647265737300000000000000000000604482015290519081900360640190fd5b8783146105b05760408051600160e51b62461bcd02815260206004820152601860248201527f496e76616c696420616d6f756e74206f6620746f6b656e730000000000000000604482015290519081900360640190fd5b8a8a60405160200180838380828437808301925050509250505060405160208183030381529060405280519060200120846040516020018082805190602001908083835b602083106106135780518252601f1990920191602091820191016105f4565b6001836020036101000a03801982511681845116808217855250505050505090500191505060405160208183030381529060405280519060200120146106a35760408051600160e51b62461bcd02815260206004820152601460248201527f496e76616c6964206d6573682061646472657373000000000000000000000000604482015290519081900360640190fd5b6001600160a01b038916600090815260026020908152604080832085845290915290205460ff161561071f5760408051600160e51b62461bcd02815260206004820152601660248201527f416c72656164792075736564207369676e617475726500000000000000000000604482015290519081900360640190fd5b60003085858560405160200180856001600160a01b03166001600160a01b031660601b815260140184805190602001908083835b602083106107725780518252601f199092019160209182019101610753565b51815160209384036101000a60001901801990921691161790529201948552508381019290925250604080518084038301815292810190528151910120925050506001600160a01b038a166107d6836107ca84610d1a565b9063ffffffff610d6b16565b6001600160a01b0316146108345760408051600160e51b62461bcd02815260206004820152601060248201527f496e636f7272656374205369676e657200000000000000000000000000000000604482015290519081900360640190fd5b6001600160a01b03808b1660008181526002602090815260408083208884528252808320805460ff19166001908117909155548151600160e01b6370a0823102815260048101959095529051929416926370a082319260248083019392829003018186803b1580156108a557600080fd5b505afa1580156108b9573d6000803e3d6000fd5b505050506040513d60208110156108cf57600080fd5b50511161091e5760408051600160e51b62461bcd0281526020600482015260126024820152600160701b71496e73756666696369656e742066756e647302604482015290519081900360640190fd5b6109618c8c8080601f0160208091040260200160405190810160405280939291908181526020018383808284376000920191909152508e9250889150610a989050565b505050505050505050505050565b60005481565b6001546001600160a01b031681565b603081565b60015460408051600160e01b6370a0823102815233600482015290516000926001600160a01b0316916370a08231916024808301926020929190829003018186803b1580156109d757600080fd5b505afa1580156109eb573d6000803e3d6000fd5b505050506040513d6020811015610a0157600080fd5b505111610a505760408051600160e51b62461bcd0281526020600482015260126024820152600160701b71496e73756666696369656e742066756e647302604482015290519081900360640190fd5b610a9383838080601f016020809104026020016040519081016040528093929190818152602001838380828437600092019190915250339250859150610a989050565b505050565b6030835114610af15760408051600160e51b62461bcd02815260206004820152601e60248201527f496e76616c6964206c656e677468206f66206d65736820616464726573730000604482015290519081900360640190fd5b620f4240810615610b2757610b0f81620f424063ffffffff610e5a16565b9050610b2481620f424063ffffffff610e7c16565b90505b60008111610b7f5760408051600160e51b62461bcd02815260206004820152601560248201527f496e76616c6964206c6f636b656420616d6f756e740000000000000000000000604482015290519081900360640190fd5b60015460408051600160e01b6323b872dd0281526001600160a01b03858116600483015230602483015260448201859052915191909216916323b872dd9160648083019260209291908290030181600087803b158015610bde57600080fd5b505af1158015610bf2573d6000803e3d6000fd5b505050506040513d6020811015610c0857600080fd5b5051610c5e5760408051600160e51b62461bcd02815260206004820152601660248201527f496e73756666696369656e7420616c6c6f77616e636500000000000000000000604482015290519081900360640190fd5b816001600160a01b03166000547fa0e06dabc2ac5cccaba68bff5a2b56dc0033a4ff17fcf9a4f2492b803a5800ac85846040518080602001838152602001828103825284818151815260200191508051906020019080838360005b83811015610cd1578181015183820152602001610cb9565b50505050905090810190601f168015610cfe5780820380516001836020036101000a031916815260200191505b50935050505060405180910390a3505060008054600101905550565b604080517f19457468657265756d205369676e6564204d6573736167653a0a333200000000602080830191909152603c8083019490945282518083039094018452605c909101909152815191012090565b60008151604114610d7e57506000610e54565b60208201516040830151606084015160001a7f7fffffffffffffffffffffffffffffff5d576e7357a4501ddfe92f46681b20a0821115610dc45760009350505050610e54565b8060ff16601b14158015610ddc57508060ff16601c14155b15610ded5760009350505050610e54565b6040805160008152602080820180845289905260ff8416828401526060820186905260808201859052915160019260a0808401939192601f1981019281900390910190855afa158015610e44573d6000803e3d6000fd5b5050506020604051035193505050505b92915050565b6000808211610e6857600080fd5b6000828481610e7357fe5b04949350505050565b600082610e8b57506000610e54565b82820282848281610e9857fe5b0414610ea357600080fd5b939250505056fea165627a7a7230582053f5d0c4310da21f04a061c67a6abe95422a45ad5cc9cd3988d4ad85435f78730029",
  "source": "pragma solidity 0.5.8;\n\n// Requirements \n\n// Any POLY holder can lock POLY (Issuers, Investors, WL, Polymath Founders, etc.)\n// Attempt to lock coins other than POLY must fail\n// The amount of POLY to be locked must be >0, otherwise, fail with insufficient funds\n// There is no MAX to how much POLY can be locked\n// SC must be upgradable based on a time-lock\n// POLY will be locked forever, no one can unlock it\n// Granularity for locked POLY should be restricted to Polymesh granularity (10^6)\n// User must provide their Mesh address when locking POLY\n// Emit an event for locked POLY including Mesh address & timestamp\n// Mesh address must be valid [needs research to see if we can verify Polymesh account checksum in Ethereum]\n// Ideally allow meta-transactions so that exchanges etc. could action on behalf of users.\n// User should sign data with their Polymesh address like “I agree that transferring POLY is a one-way process and can’t be reversed”\n// - this ensures that they def. control their Polymesh account. [needs research to see if we can verify Polymesh signed data in Ethereum]\n\nimport \"openzeppelin-solidity/contracts/token/ERC20/IERC20.sol\";\nimport \"openzeppelin-solidity/contracts/math/SafeMath.sol\";\nimport \"openzeppelin-solidity/contracts/cryptography/ECDSA.sol\";\nimport \"./PolyLockerStorage.sol\";\n\n/**\n * @title Contract used to lock POLY corresponds to locked amount user can claim same\n * amount of POLY on Polymesh blockchain\n */\n\ncontract PolyLocker is PolyLockerStorage {\n\n    using SafeMath for uint256;\n    using ECDSA for bytes32;\n\n    // Emit an event when the poly gets lock\n    event PolyLocked(uint256 indexed _id, address indexed _holder, string _meshAddress, uint256 _value);\n\n    constructor () public  {\n    }\n\n    /**\n     * @notice Used for locking the POLY token\n     * @param _meshAddress Address that compatible the Polymesh blockchain\n     */\n    function lock(string calldata _meshAddress) external {\n        _lock(_meshAddress, msg.sender, IERC20(polyToken).balanceOf(msg.sender));\n    }\n\n    /**\n     * @notice Used for locking the POLY token\n     * @param _meshAddress Address that compatible the Polymesh blockchain\n     * @param _lockedValue Amount of tokens need to locked\n     */\n    function limitLock(string calldata _meshAddress, uint256 _lockedValue) external {\n        require(IERC20(polyToken).balanceOf(msg.sender) > uint256(0), \"Insufficient funds\");\n        _lock(_meshAddress, msg.sender, _lockedValue);\n    }\n\n    /**\n     * @notice Used for locking the POLY using the off chain data blob\n     * @param _meshAddress Address that compatible the Polymesh blockchain\n     * @param _holder Ethereum address of the token holder\n     * @param _value Amount of tokens need to locked\n     * @param _data Off chain data blob used for signer validation\n     */\n    function lockWithData(string calldata _meshAddress, address _holder, uint256 _value, bytes calldata _data) external {\n        address targetAddress;\n        string memory meshAddress;\n        uint256 lockedValue;\n        uint256 nonce;\n        bytes memory signature;\n        (targetAddress, meshAddress, lockedValue, nonce, signature) = abi.decode(_data, (address, string, uint256, uint256, bytes));\n        require(_holder != address(0), \"Invalid address\");\n        require(targetAddress == address(this), \"Invalid target address\");\n        require(lockedValue == _value, \"Invalid amount of tokens\");\n        require(keccak256(abi.encodePacked(meshAddress)) == keccak256(abi.encodePacked(_meshAddress)), \"Invalid mesh address\");\n        require(authenticationNonce[_holder][nonce] == false, \"Already used signature\");\n        bytes32 hash = keccak256(abi.encodePacked(this, meshAddress, lockedValue, nonce));\n        require(hash.toEthSignedMessageHash().recover(signature) == _holder, \"Incorrect Signer\"); \n        // Invalidate the nonce\n        authenticationNonce[_holder][nonce] = true;\n        require(IERC20(polyToken).balanceOf(_holder) > uint256(0), \"Insufficient funds\");\n        _lock(_meshAddress, _holder, lockedValue);\n    }\n\n    function _lock(string memory _meshAddress, address _holder, uint256 _senderBalance) internal {\n        // Validate the MESH address\n        require(bytes(_meshAddress).length == VALID_ADDRESS_LENGTH, \"Invalid length of mesh address\");\n        // Check the valid granularity, It should be 10^9 if not then transfer only 10^9 granularity funds\n        // rest will reamin as dust in the sender account\n        if (_senderBalance % VALID_GRANULARITY != 0) {\n            _senderBalance = _senderBalance.div(VALID_GRANULARITY);\n            _senderBalance = _senderBalance.mul(VALID_GRANULARITY);\n        }\n        // Check whether the senderBalance is greater than 0 or not\n        require(_senderBalance > uint256(0), \"Invalid locked amount\");\n        // Transfer funds to the contract\n        require(IERC20(polyToken).transferFrom(_holder, address(this), _senderBalance), \"Insufficient allowance\");\n        emit PolyLocked(noOfeventsEmitted, _holder, _meshAddress, _senderBalance);\n        noOfeventsEmitted = noOfeventsEmitted + 1;  // Increment the event counter\n    }\n    \n}",
  "sourcePath": "/home/vkandy/workspaces/Polymath/ethereum-polymesh-bridge/contracts/PolyLocker.sol",
  "compiler": {
    "name": "solc",
    "version": "0.5.8+commit.23d335f2.Emscripten.clang"
  },
  "schemaVersion": "3.0.23",
  "updatedAt": "2020-03-11T22:26:36.212Z",
  "networkType": "ethereum",
  "devdoc": {
    "methods": {
      "limitLock(string,uint256)": {
        "params": {
          "_lockedValue": "Amount of tokens need to locked",
          "_meshAddress": "Address that compatible the Polymesh blockchain"
        }
      },
      "lock(string)": {
        "params": {
          "_meshAddress": "Address that compatible the Polymesh blockchain"
        }
      },
      "lockWithData(string,address,uint256,bytes)": {
        "params": {
          "_data": "Off chain data blob used for signer validation",
          "_holder": "Ethereum address of the token holder",
          "_meshAddress": "Address that compatible the Polymesh blockchain",
          "_value": "Amount of tokens need to locked"
        }
      }
    },
    "title": "Contract used to lock POLY corresponds to locked amount user can claim same amount of POLY on Polymesh blockchain"
  },
  "userdoc": {
    "methods": {
      "limitLock(string,uint256)": {
        "notice": "Used for locking the POLY token"
      },
      "lock(string)": {
        "notice": "Used for locking the POLY token"
      },
      "lockWithData(string,address,uint256,bytes)": {
        "notice": "Used for locking the POLY using the off chain data blob"
      }
    }
  }
}